:020000040800F2
:1000000000280020CD0600087106000877060008C9
:100010007D0600088306000889060008000000002D
:100020000000000000000000000000008F06000833
:100030009B06000800000000A7060008B3060008A1
:100040001507000815070008150700081507000820
:100050001507000815070008150700081507000810
:100060001507000815070008150700081507000800
:1000700015070008150700081507000815070008F0
:1000800015070008150700081507000815070008E0
:1000900015070008150700081507000815070008D0
:1000A00015070008150700081507000815070008C0
:1000B00015070008150700080000000015070008D4
:1000C00015070008000000000000000015070008E8
:1000D00000000000150700081507000800000000D8
:1000E00015070008150700081507000800000000A4
:1000F0000000000000000000000000000000000000
:0C01000000000000000000005FF808F1A3
:10010C0010B5054C237833B9044B13B10448AFF345
:10011C0000800123237010BD0C00002000000000A3
:10012C003C15000808B5034B1BB103490348AFF35A
:10013C00008008BD00000000100000203C150008E5
:10014C0080B582B000AF78607B68092B7FD801A2A4
:10015C0052F823F0890100089F010008B50100083E
:10016C00CB010008E1010008F70100080D020008AE
:10017C0023020008390200084502000800223F2132
:10018C00354800F0A9FD01224021334800F0A4FDC0
:10019C005DE000220621304800F09EFD012279210D
:1001AC002D4800F099FD52E000225B212A4800F016
:1001BC0093FD01222421284800F08EFD47E0002207
:1001CC004F21254800F088FD01223021224800F003
:1001DC0083FD3CE0002266211F4800F07DFD0122DA
:1001EC0019211D4800F078FD31E000226D211A48DC
:1001FC0000F072FD01221221174800F06DFD26E07F
:10020C0000227D21144800F067FD012202211248D2
:10021C0000F062FD1BE0002207210F4800F05CFD9E
:10022C00012278210C4800F057FD10E000227F21BC
:10023C00094800F051FD0AE000226F21064800F049
:10024C004BFD01221021044800F046FD00BF00BF09
:10025C000837BD4680BD00BF000C014080B582B0A0
:10026C0000AF78607B68092B00F2948001A252F8F1
:10027C0023F000BFA9020008C3020008DD02000839
:10028C00F7020008110300082B03000845030008BF
:10029C005F030008790300088703000800224FF46D
:1002AC007C513E4800F018FD01224FF480413B4840
:1002BC0000F012FD6EE000224FF4C061374800F0F0
:1002CC000BFD01224FF4F241344800F005FD61E0D2
:1002DC0000224FF4B641314800F0FEFC01224FF4ED
:1002EC0010512E4800F0F8FC54E000224FF49E41CF
:1002FC002A4800F0F1FC01224FF44051274800F04D
:10030C00EBFC47E000224FF4CC41244800F0E4FC25
:10031C0001224FF4C851214800F0DEFC3AE00022E3
:10032C004FF4DA411D4800F0D7FC01224FF49051F4
:10033C001A4800F0D1FC2DE000224FF4FA41174886
:10034C0000F0CAFC01224FF40071144800F0C4FC08
:10035C0020E000224FF4E061104800F0BDFC0122C7
:10036C004FF4F0410D4800F0B7FC13E000224FF4BD
:10037C00FE410A4800F0B0FC0CE000224FF4DE41D4
:10038C00064800F0A9FC01224FF48051034800F00C
:10039C00A3FC00BF00BF0837BD4680BD000C014068
:1003AC0080B584B000AF00F0B1F900F0A1F800F016
:1003BC00DBF80A23FB600023BB6000237B60FB6837
:1003CC000A2B24D10523BB6000222021474800F0D2
:1003DC0083FC01224021454800F07EFC0122802153
:1003EC00424800F079FC03237B6001224FF48071BA
:1003FC003E4800F071FC01224FF400713B4800F0C4
:10040C006BFC00224FF48061384800F065FCFB68FF
:10041C00072B14D102237B6001224FF480713348E7
:10042C0000F05AFC00224FF40071304800F054FCEC
:10043C0001224FF480612D4800F04EFC3CE0FB683B
:10044C00052B25D10323BB6001222021274800F076
:10045C0043FC01224021254800F03EFC0022802173
:10046C00224800F039FC05237B6000224FF4807198
:10047C001E4800F031FC01224FF400711B4800F0C3
:10048C002BFC01224FF48061184800F025FC13E08E
:10049C00FB68022B10D10223BB60012220211348E0
:1004AC0000F01AFC00224021104800F015FC01223B
:1004BC0080210E4800F010FCB868FFF741FE786808
:1004CC00FFF7CCFEBB68013BBB607B68013B7B60EC
:1004DC00FB68013BFB60FB68002B01D10A23FB602E
:1004EC004FF47A7000F074F969E700BF000801401E
:1004FC0080B590B000AF07F11803282200211846F0
:10050C0001F00EF83B1D00221A605A609A60DA6006
:10051C001A610223BB610123BB621023FB6200231F
:10052C007B6307F11803184600F0EEFB0346002B23
:10053C0001D000F06FF80F237B600023BB60002319
:10054C00FB6000233B6100237B613B1D00211846AF
:10055C0000F05CFE0346002B01D000F05BF800BFFE
:10056C004037BD4680BD000080B586B000AF07F1B6
:10057C00080300221A605A609A60DA60224B9B6969
:10058C00214A43F0040393611F4B9B6903F004035E
:10059C007B607B681C4B9B691B4A43F0080393618F
:1005AC00194B9B6903F008033B603B6800224FF436
:1005BC00FC61164800F090FB002247F67F7114484E
:1005CC0000F08AFB4FF4FC63BB600123FB6000234B
:1005DC003B6102237B6107F1080319460B4800F0CD
:1005EC00FFF947F67F73BB600123FB6000233B617F
:1005FC0002237B6107F108031946054800F0F0F966
:10060C0000BF1837BD4680BD0010024000080140F5
:10061C00000C014080B400AF72B600BFFEE70000D2
:10062C0080B483B000AF0E4B9B690D4A43F00103BD
:10063C0093610B4B9B6903F001037B607B68084B58
:10064C00DB69074A43F08053D361054BDB6903F048
:10065C0080533B603B6800BF0C37BD4680BC704785
:10066C000010024080B400AFFEE780B400AFFEE79C
:10067C0080B400AFFEE780B400AFFEE780B400AFFB
:10068C00FEE780B400AF00BFBD4680BC704780B4AD
:10069C0000AF00BFBD4680BC704780B400AF00BF48
:1006AC00BD4680BC704780B500AF00F075F800BF48
:1006BC0080BD80B400AF00BFBD4680BC7047000059
:1006CC000C480D490D4A002302E0D458C4500433A1
:1006DC00C4188C42F9D30A4A0A4C002301E0136077
:1006EC000432A242FBD3FFF7E4FF00F0F5FEFFF764
:1006FC0057FE7047000000200C0000207C150008FD
:10070C000C0000202C000020FEE7000080B500AF9C
:10071C00084B1B68074A43F010031360032000F0DA
:10072C002BF90F2000F008F8FFF77AFF002318468A
:10073C0080BD00BF0020024080B582B000AF786061
:10074C00124B1A68124B1B7819464FF47A73B3FB91
:10075C00F1F3B2FBF3F3184600F035F90346002B26
:10076C0001D001230EE07B680F2B0AD80022796898
:10077C004FF0FF3000F00BF9064A7B681360002342
:10078C0000E0012318460837BD4680BD000000205C
:10079C00080000200400002080B400AF054B1B783B
:1007AC001A46054B1B681344034A136000BFBD4631
:1007BC0080BC7047080000202800002080B400AFE7
:1007CC00024B1B681846BD4680BC704728000020B1
:1007DC0080B584B000AF7860FFF7F0FFB8607B683D
:1007EC00FB60FB68B3F1FF3F05D00A4B1B781A4640
:1007FC00FB681344FB6000BFFFF7E0FF0246BB68D9
:10080C00D31AFA689A42F7D800BF00BF1037BD461A
:10081C0080BD00BF0800002080B485B000AF7860B8
:10082C007B6803F00703FB600C4BDB68BB60BA68AA
:10083C004FF6FF031340BB60FB681A02BB681343FF
:10084C0043F0BF6343F40033BB60044ABB68D3601E
:10085C0000BF1437BD4680BC704700BF00ED00E000
:10086C0080B400AF044BDB681B0A03F00703184687
:10087C00BD4680BC704700BF00ED00E080B483B083
:10088C0000AF03463960FB7197F90730002B0ADB88
:10089C003B68DAB20C4997F907301201D2B20B441B
:1008AC0083F800230AE03B68DAB20849FB7903F0CD
:1008BC000F03043B1201D2B20B441A7600BF0C3763
:1008CC00BD4680BC704700BF00E100E000ED00E0D9
:1008DC0080B489B000AFF860B9607A60FB6803F04F
:1008EC000703FB61FB69C3F10703042B28BF042337
:1008FC00BB61FB690433062B02D9FB69033B00E0A7
:10090C0000237B614FF0FF32BB6902FA03F3DA4339
:10091C00BB681A407B699A404FF0FF317B6901FA42
:10092C0003F3D9437B680B40134318462437BD4669
:10093C0080BC704780B582B000AF78607B68013BAB
:10094C00B3F1807F01D301230FE00A4A7B68013B9E
:10095C0053600F214FF0FF30FFF790FF054B002243
:10096C009A60044B07221A60002318460837BD46CC
:10097C0080BD00BF10E000E080B582B000AF7860B1
:10098C007868FFF749FF00BF0837BD4680BD80B5CA
:10099C0086B000AF0346B9607A60FB7300237B61BD
:1009AC00FFF75EFF78617A68B9687869FFF790FFA6
:1009BC00024697F90F3011461846FFF75FFF00BF4C
:1009CC001837BD4680BD80B582B000AF78607868BE
:1009DC00FFF7B0FF034618460837BD4680BD000040
:1009EC0080B48BB000AF7860396000237B62002349
:1009FC003B6261E101227B6A02FA03F3FB613B6813
:100A0C001B68FA691340BB61BA69FB699A4240F0F2
:100A1C0050813B685B68974A93425ED0954A9342FB
:100A2C0075D8954A934258D0934A93426FD8934ABB
:100A3C00934252D0914A934269D8914A93424CD0F6
:100A4C008F4A934263D88F4A934246D08D4A934241
:100A5C005DD8122B2AD8122B59D801A252F823F0A8
:100A6C00E70A0008C10A0008D30A0008150B0008A1
:100A7C001B0B00081B0B00081B0B00081B0B0008B2
:100A8C001B0B00081B0B00081B0B00081B0B0008A2
:100A9C001B0B00081B0B00081B0B00081B0B000892
:100AAC001B0B0008C90A0008DD0A0008764A9342AD
:100ABC0013D02CE03B68DB683B6229E03B68DB68C9
:100ACC0004333B6224E03B68DB6808333B621FE085
:100ADC003B68DB680C333B621AE03B689B68002B7D
:100AEC0002D104233B6213E03B689B68012B05D1C8
:100AFC0008233B627B68FA691A6109E008233B62B0
:100B0C007B68FA695A6103E000233B6200E000BF96
:100B1C00BB69FF2B01D87B6801E07B6804337B61E8
:100B2C00BB69FF2B02D87B6A9B0002E07B6A083B07
:100B3C009B003B617B691A680F213B6901FA03F347
:100B4C00DB431A40396A3B6901FA03F31A437B69A8
:100B5C001A603B685B6803F08053002B00F0A9809F
:100B6C004A4B9B69494A43F001039361474B9B698C
:100B7C0003F00103BB60BB68454A7B6A9B080233E8
:100B8C0052F82330FB607B6A03F003039B000F22B7
:100B9C0002FA03F3DB43FA681340FB607B683D4ABF
:100BAC0093420DD07B683C4A934207D07B683B4A0A
:100BBC00934201D1022304E0032302E0012300E06D
:100BCC0000237A6A02F0030292009340FA681343FE
:100BDC00FB602F497B6A9B080233FA6841F823209B
:100BEC003B685B6803F48033002B06D02C4B1A68EF
:100BFC002B49BB6913430B6006E0294B1A68BB6990
:100C0C00DB43274913400B603B685B6803F40033FC
:100C1C00002B06D0224B5A682149BB6913434B6009
:100C2C0006E01F4B5A68BB69DB431D4913404B6000
:100C3C003B685B6803F48013002B06D0184B9A6852
:100C4C001749BB6913438B6006E0154B9A68BB6967
:100C5C00DB43134913408B603B685B6803F4001360
:100C6C00002B1FD00E4BDA680D49BB691343CB60C8
:100C7C001FE000BF000032100000311000002210F5
:100C8C000000211000001210000011100010024092
:100C9C000000014000080140000C01400010014020
:100CAC00000401400B4BDA68BB69DB430949134074
:100CBC00CB607B6A01337B623B681A687B6A22FAE1
:100CCC0003F3002B7FF496AE00BF00BF2C37BD465C
:100CDC0080BC70470004014080B483B000AF7860E2
:100CEC000B467B8013467B707B78002B03D07A8875
:100CFC007B681A6103E07B881A047B681A6100BF69
:100D0C000C37BD4680BC704780B586B000AF7860AC
:100D1C007B68002B01D1012372E27B681B6803F016
:100D2C000103002B00F08780924B5B6803F00C03EF
:100D3C00042B0CD08F4B5B6803F00C03082B12D1E7
:100D4C008C4B5B6803F48033B3F5803F0BD1894B3C
:100D5C001B6803F40033002B6CD07B685B68002BA2
:100D6C0068D101234CE27B685B68B3F5803F06D108
:100D7C00804B1B687F4A43F4803313602EE07B6802
:100D8C005B68002B0CD17B4B1B687A4A23F48033B5
:100D9C001360784B1B68774A23F4802313601DE0A3
:100DAC007B685B68B3F5A02F0CD1724B1B68714A42
:100DBC0043F4802313606F4B1B686E4A43F48033FB
:100DCC0013600BE06B4B1B686A4A23F4803313608F
:100DDC00684B1B68674A23F4802313607B685B684D
:100DEC00002B13D0FFF7EAFC386108E0FFF7E6FCB4
:100DFC0002463B69D31A642B01D9032300E25D4BF5
:100E0C001B6803F40033002BF0D014E0FFF7D6FC82
:100E1C00386108E0FFF7D2FC02463B69D31A642B19
:100E2C0001D90323ECE1534B1B6803F40033002B73
:100E3C00F0D100E000BF7B681B6803F00203002BBD
:100E4C0063D04C4B5B6803F00C03002B0BD0494B6D
:100E5C005B6803F00C03082B1CD1464B5B6803F456
:100E6C008033002B16D1434B1B6803F00203002B7D
:100E7C0005D07B681B69012B01D00123C0E13D4BE0
:100E8C001B6823F0F8027B685B69DB00394913436C
:100E9C000B603AE07B681B69002B20D0364B01229B
:100EAC001A60FFF78BFC386108E0FFF787FC0246FD
:100EBC003B69D31A022B01D90323A1E12D4B1B68EB
:100ECC0003F00203002BF0D02A4B1B6823F0F8022E
:100EDC007B685B69DB00274913430B6015E0264BED
:100EEC0000221A60FFF76AFC386108E0FFF766FC25
:100EFC0002463B69D31A022B01D9032380E11D4B17
:100F0C001B6803F00203002BF0D17B681B6803F015
:100F1C000803002B3AD07B689B69002B19D0174B28
:100F2C0001221A60FFF74AFC386108E0FFF746FC23
:100F3C0002463B69D31A022B01D9032360E10D4B06
:100F4C005B6A03F00203002BF0D0012000F0A6FA3C
:100F5C001CE00A4B00221A60FFF730FC38610FE0EE
:100F6C00FFF72CFC02463B69D31A022B08D903234A
:100F7C0046E100BF001002400000424280044242A1
:100F8C00924B5B6A03F00203002BE9D17B681B6870
:100F9C0003F00403002B00F0A6800023FB758B4BA1
:100FAC00DB6903F08053002B0DD1884BDB69874A3A
:100FBC0043F08053D361854BDB6903F08053BB60F6
:100FCC00BB680123FB75824B1B6803F48073002BF9
:100FDC0018D17F4B1B687E4A43F480731360FFF774
:100FEC00EDFB386108E0FFF7E9FB02463B69D31AD9
:100FFC00642B01D9032303E1754B1B6803F4807345
:10100C00002BF0D07B68DB68012B06D16F4B1B6A81
:10101C006E4A43F0010313622DE07B68DB68002B02
:10102C000CD16A4B1B6A694A23F001031362674BAC
:10103C001B6A664A23F0040313621CE07B68DB68BE
:10104C00052B0CD1614B1B6A604A43F004031362FD
:10105C005E4B1B6A5D4A43F0010313620BE05B4B72
:10106C001B6A5A4A23F001031362584B1B6A574AF6
:10107C0023F0040313627B68DB68002B15D0FFF7A9
:10108C009DFB38610AE0FFF799FB02463B69D31AD6
:10109C0041F28832934201D90323B1E04B4B1B6AD6
:1010AC0003F00203002BEED014E0FFF787FB38614E
:1010BC000AE0FFF783FB02463B69D31A41F2883200
:1010CC00934201D903239BE0404B1B6A03F00203BC
:1010DC00002BEED1FB7D012B05D13C4BDB693B4A50
:1010EC0023F08053D3617B68DB69002B00F0878091
:1010FC00364B5B6803F00C03082B61D07B68DB6913
:10110C00022B46D1334B00221A60FFF757FB386194
:10111C0008E0FFF753FB02463B69D31A022B01D9B7
:10112C0003236DE0294B1B6803F00073002BF0D1F7
:10113C007B681B6AB3F5803F08D1244B5B6823F4B2
:10114C0000327B689B68214913434B601F4B5B68E3
:10115C0023F474127B68196A7B685B6A0B431B4926
:10116C0013434B601B4B01221A60FFF727FB3861BE
:10117C0008E0FFF723FB02463B69D31A022B01D987
:10118C0003233DE0114B1B6803F00073002BF0D0E0
:10119C0035E0104B00221A60FFF710FB386108E0B5
:1011AC00FFF70CFB02463B69D31A022B01D9032330
:1011BC0026E0064B1B6803F00073002BF0D11EE0F9
:1011CC007B68DB69012B07D1012319E00010024079
:1011DC0000700040600042420B4B5B68FB60FB6898
:1011EC0003F480327B681B6A9A4206D1FB6803F4D5
:1011FC0070127B685B6A9A4201D0012300E00023E5
:10120C0018461837BD4680BD0010024080B584B02A
:10121C0000AF786039607B68002B01D10123D0E0EE
:10122C006A4B1B6803F007033A689A4210D9674B64
:10123C001B6823F0070265493B6813430B60634B43
:10124C001B6803F007033A689A4201D00123B8E007
:10125C007B681B6803F00203002B20D07B681B68A3
:10126C0003F00403002B05D0594B5B68584A43F438
:10127C00E06353607B681B6803F00803002B05D008
:10128C00534B5B68524A43F460535360504B5B685A
:10129C0023F0F0027B689B684D4913434B607B68DD
:1012AC001B6803F00103002B40D07B685B68012BAB
:1012BC0007D1474B1B6803F40033002B15D10123D6
:1012CC007FE07B685B68022B07D1414B1B6803F006
:1012DC000073002B09D1012373E03D4B1B6803F015
:1012EC000203002B01D101236BE0394B5B6823F027
:1012FC0003027B685B68364913434B60FFF75EFA69
:10130C00F8600AE0FFF75AFA0246FB68D31A41F27A
:10131C008832934201D9032353E02D4B5B6803F0D1
:10132C000C027B685B689B009A42EBD1274B1B68D5
:10133C0003F007033A689A4210D2244B1B6823F03F
:10134C00070222493B6813430B60204B1B6803F0D8
:10135C0007033A689A4201D0012332E07B681B688C
:10136C0003F00403002B08D0194B5B6823F4E062F4
:10137C007B68DB68164913434B607B681B6803F082
:10138C000803002B09D0124B5B6823F460527B6876
:10139C001B69DB000E4913434B6000F021F8024639
:1013AC000B4B5B681B0903F00F030A49CB5C22FA59
:1013BC0003F3094A1360094B1B681846FFF7BCF985
:1013CC00002318461037BD4680BD00BF00200240E8
:1013DC0000100240641500080000002004000020EA
:1013EC0090B48AB000AF294B3C1D0FCB84E80F00A2
:1013FC0040F201233B800023FB610023BB610023EF
:10140C007B6200237B6100233B62214B5B68FB61A9
:10141C00FB6903F00C03042B02D0082B03D02BE048
:10142C001C4B3B622BE0FB699B0C03F00F03283336
:10143C003B4413F8243C7B61FB6903F48033002BA1
:10144C0012D0134B5B685B0C03F0010328333B4455
:10145C0013F8283CBB617B690E4A03FB02F2BB69A3
:10146C00B2FBF3F37B6204E07B690B4A02FB03F3F0
:10147C007B627B6A3B6202E0064B3B6200BF3B6ACD
:10148C0018462837BD4690BC704700BF541500085D
:10149C000010024000127A0000093D0080B485B0B3
:1014AC0000AF78600A4B1B680A4AA2FB03235B0A55
:1014BC007A6802FB03F3FB6000BFFB685A1EFA60FC
:1014CC00002BF9D100BF00BF1437BD4680BC70475C
:1014DC0000000020D34D621070B500260C4D0D4C51
:1014EC00641BA410A64209D100F022F800260A4D74
:1014FC000A4C641BA410A64205D170BD55F8043BE0
:10150C0098470136EEE755F8043B98470136F2E769
:10151C007415000874150008741500087815000877
:10152C0003460244934200D1704703F8011BF9E7CC
:10153C00F8B500BFF8BC08BC9E467047F8B500BFB4
:08154C00F8BC08BC9E46704784
:1015540002030405060708090A0B0C0D0E0F1010F0
:10156400000000000000000001020304060708094F
:041574003101000839
:041578000D01000859
:0C157C000024F40010000000010000003A
:04000005080006CD1C
:00000001FF
